:020000040800F2
:10000000600600206D0100087501000877010008F6
:10001000790100087B0100087D0100080000000054
:100020000000000000000000000000007F01000848
:10003000810100080000000083010008850100081C
:100040008701000887010008870100088701000870
:100050008701000887010008870100088701000860
:100060008701000887010008870100088701000850
:100070008701000887010008870100088701000840
:100080008701000887010008870100088701000830
:100090008701000887010008870100088701000820
:1000A0008701000887010008870100088701000810
:1000B0008701000887010008870100088701000800
:1000C00087010008870100088701000887010008F0
:1000D00087010008870100088701000887010008E0
:1000E00087010008870100088701000800F002F876
:1000F00000F02CF80AA090E8000C82448344AAF196
:100100000107DA4501D100F021F8AFF2090EBAE893
:100110000F0013F0010F18BFFB1A43F0010318473B
:10012000FC0500000C06000000230024002500262A
:10013000103A28BF78C1FBD8520728BF30C148BF4A
:100140000B6070471FB51FBD10B510BD00F031F832
:100150001146FFF7F7FF00F059FA00F04FF803B42B
:10016000FFF7F2FF03BC00F057F800000948804792
:1001700009480047FEE7FEE7FEE7FEE7FEE7FEE789
:10018000FEE7FEE7FEE7FEE704480549054A064BA1
:10019000704700003D050008ED00000860000020E9
:1001A0006006002060020020600200207047704757
:1001B0007047754600F02CF8AE4605006946534678
:1001C00020F00700854618B020B5FFF7DDFFBDE839
:1001D00020404FF000064FF000074FF000084FF0AE
:1001E000000B21F00701AC46ACE8C009ACE8C0093F
:1001F000ACE8C009ACE8C0098D46704710B50446AC
:10020000AFF300802046BDE81040FFF7A8BF000014
:10021000004870470000002001491820ABBEFEE7EF
:100220002600020070470BE000214FF080429184CD
:1002300000BF4FF08041898CB1F57A7FF9DB401E19
:100240000028F1D170472DE9F04102460025002633
:10025000002000230024002791F803C00CF00F05B4
:1002600091F803C00CF0100CBCF1000F03D091F812
:1002700002C04CEA050591F800C0BCF1000F31D076
:10028000146800202BE04FF0010C0CFA00F3B1F8D9
:1002900000C00CEA03069E4220D183004FF00F0CF1
:1002A0000CFA03F7BC4305FA03FC4CEA040491F88A
:1002B00003C0BCF1280F06D14FF0010C0CFA00FC72
:1002C000C2F814C00AE091F803C0BCF1480F05D190
:1002D0004FF0010C0CFA00FCC2F810C0401C0828BA
:1002E000D1D31460B1F800C0BCF1FF0F34DD546805
:1002F00000202EE000F1080C4FF0010808FA0CF382
:10030000B1F800C00CEA03069E4221D183004FF0F1
:100310000F0C0CFA03F7BC4305FA03FC4CEA040487
:1003200091F803C0BCF1280F05D100F1080C08FAC0
:100330000CF8C2F8148091F803C0BCF1480F07D143
:1003400000F1080C4FF0010808FA0CF8C2F8108010
:10035000401C0828CED35460BDE8F081024600203E
:1003600093680B400BB1012000E000207047416111
:10037000704701617047000008B501211C2000F0A2
:1003800059F810208DF803004002ADF8000003205A
:100390008DF8020069460948FFF755FF10208DF8D7
:1003A00003004FF47E70ADF8000003208DF80200CA
:1003B00069460348FFF747FF08BD000000100140F1
:1003C000000C014010B500BF00F052F94FF4FA7074
:1003D000FFF729FF00F058F9272000F065F900F039
:1003E00023F910211248FFF7B9FFF8B900F02EF9F0
:1003F000AA2000F079F900F017F910210C48FFF756
:10040000ADFF98B900F022F9302000F06DF900F04E
:100410000BF910210648FFF7A1FF20B900F016F9EB
:1004200000F0E0F802E000F011F9CDE710BD0000A7
:10043000000C014029B1064A92690243044B9A61BB
:1004400004E0034A92698243014B9A6170470000BD
:100450000010024010B500F001F810BD0CB50020EE
:10046000019000903348006840F4803031490860C2
:1004700000BF3048006800F4003000900198401C34
:100480000190009818B90198B0F5A06FF1D12948F2
:10049000006800F4003010B10120009001E000205D
:1004A00000900098012843D12348006840F01000D4
:1004B000214908600846006820F0070008600846E7
:1004C000006840F0020008601A4840681949486016
:1004D0000846406848600846406840F480604860CC
:1004E0000846406820F47C1048600846406840F4A4
:1004F000E81048600846006840F08070086000BF5F
:100500000C48006800F000700028F9D009484068E5
:1005100020F00300074948600846406840F00200A8
:10052000486000BF0348406800F00C000828F9D17B
:100530000CBD0000001002400020024010B513481E
:10054000006840F001001149086008464068104901
:1005500008400E494860084600680E4908400B49AB
:1005600008600846006820F480200860084640685B
:1005700020F4FE0048604FF41F008860FFF76AFF18
:100580004FF000600449086010BD000000100240F8
:100590000000FFF8FFFFF6FE08ED00E00748C06925
:1005A00040F001000549C8614FF6FF708904888555
:1005B000472008850120088088827047001002408B
:1005C00010B508210648FFF7D4FE3220FFF72BFEB6
:1005D00008210348FFF7CBFE3220FFF724FE10BDB1
:1005E000000C014010B510210748FFF7C0FE08219C
:1005F0000548FFF7BEFE3220FFF715FE1021024826
:10060000FFF7B7FE10BD0000000C0140FFF7B4FE7D
:10061000FFF7C4FF00BF05E04FF47A70FFF703FE59
:10062000FFF7D0FEF8E700000748006820F44030EC
:10063000054908600846006840F400300860102052
:100640000149103108607047000C014007480068FC
:1006500020F44030054908600846006840F48030C6
:10066000086010200149143108607047000C0140F7
:1006700010B510210348FFF77CFE08210148FFF761
:1006800078FE10BD000C014010B510210548FFF7A1
:100690006EFE3220FFF7C7FD08210248FFF767FE14
:1006A00010BD0000000C014070B50546002410E0AC
:1006B00040202041284020B110210A48FFF759FE70
:1006C00003E010210748FFF752FEFFF779FF601C97
:1006D000C4B2072CECDB10210248FFF748FEFFF7FD
:1006E0006FFF70BD000C014070B50546002410E09E
:1006F00080202041284020B110210748FFF739FE13
:1007000003E010210448FFF732FEFFF759FF601C99
:10071000C4B2072CECDB70BD000C01402C070008B4
:0C07200000000020600600002801000816
:04000005080000ED02
:00000001FF
